:0400000071EF3FF06D
:107EE200026A016A000176EF3FF00F0EC16E000ECA
:107EF200936E010E956E83A081EF3FF083EF3FF00A
:107F020084EF3FF08A8083A289EF3FF08BEF3FF04E
:107F12008CEF3FF08A8283A491EF3FF093EF3FF022
:107F220094EF3FF08A8483A699EF3FF09BEF3FF0F6
:107F32009CEF3FF08A8683A8A1EF3FF0A3EF3FF0CA
:107F4200A4EF3FF08A8883AAA9EF3FF0ABEF3FF09E
:107F5200ACEF3FF08A8A83ACB1EF3FF0B3EF3FF072
:107F6200B4EF3FF08A8C83AEB9EF3FF0BBEF3FF046
:107F7200BCEF3FF08A8E83B0C1EF3FF0C3EF3FF01A
:107F8200C4EF3FF08A9083B2C9EF3FF0CBEF3FF0EE
:107F9200CCEF3FF08A9283B4D1EF3FF0D3EF3FF0C2
:107FA200D4EF3FF08A9483B6D9EF3FF0DBEF3FF096
:107FB200DCEF3FF08A9683B8E1EF3FF0E3EF3FF06A
:107FC200E4EF3FF08A9883BAE9EF3FF0EBEF3FF03E
:107FD200ECEF3FF08A9A83BCF1EF3FF0F3EF3FF012
:107FE200F4EF3FF08A9C83BEF9EF3FF0FBEF3FF0E6
:0E7FF2007CEF3FF08A9E7CEF3FF000EF00F046
:020000040020DA
:08000000FFFFFFFFFFFFFFFF00
:020000040030CA
:0E000000000C1F1FFF8385FF0FC00FE00F4095
:00000001FF
